:1000000007C1000035C1000033C1000031C100004C
:100010002FC100002DC100002BC1000029C100002C
:1000200027C100006BC5000069C5000067C500005E
:100030001FC100001DC100001BC1000019C100004C
:1000400017C1000015C1000013C1000011C100005C
:100050000FC100000DC100000BC1000005C500006C
:1000600007C10000D8C40000ADC4000001C10000F9
:10007000FFC00000FDC00000FBC00000F9C0000090
:10008000F7C00000F5C00000F3C00000F1C00000A0
:1000900070C4000045C40000EBC00000E9C00000CF
:1000A000E7C00000E5C00000E3C00000E1C00000C0
:1000B000DFC00000DDC00000DBC00000D9C00000D0
:1000C000D7C00000D5C00000D3C00000D1C00000E0
:1000D000CFC00000CDC00000CBC00000C9C00000F0
:1000E000C7C000001403170306030A030E034E03E0
:1000F0001B031F03250329032D03330337033B038E
:100100004E0341034503490300002100240027005A
:100110002A002D0030003300010100000401070116
:100120000A0100002200250028002B002E003100CB
:10013000340002010000050108010B010505050559
:10014000070508080808020202020A0A080804044F
:10015000040401010101010101010303030303037D
:100160000303040707070C0C0C0C0C0C0C0C02020C
:10017000020206060606060606060B0B0B0B0B0B09
:100180000B0B010210202008081020401020408096
:10019000020102010804020101020408102040804B
:1001A00080402010080402018004020180402010D9
:1001B0000804020108040201010204081020408022
:1001C000010204081020408000000A0B02090C0DF7
:1001D0000E080703040100000000000000000000FA
:1001E000000000000000000000000000000000000F
:1001F00000000000121110000000000000000000CC
:100200000000000000000000000000000000880561
:1002100011241FBECFEFD1E2DEBFCDBF00E00CBF87
:1002200023E0A6E4B2E001C01D92AF38B207E1F7C7
:1002300012E0A0E0B2E0ECE5F7E100E00BBF02C0A5
:1002400007900D92A634B107D9F711E0C8E0D1E0CC
:1002500000E006C021970109802FFE010E94760967
:10026000C730D10780E00807A9F7A5D40C94AC0BE0
:10027000C7CE80917B00877F80937B0085E480934D
:100280007C0080917A00806480937A0080917A006B
:1002900086FDFCCF809178002091790090E0922B30
:1002A00008952FB7F89480914D0290914E02A0913D
:1002B0004F02B09150022FBF8093F6029093F70245
:1002C000A093F802B093F902E091EE02F091EF02F0
:1002D0000284F385E02D8EEE92E0199597FF26C0FB
:1002E0002FB7F89480914D0290914E02A0914F0249
:1002F000B09150022FBF4091F6025091F7026091E9
:10030000F8027091F902841B950BA60BB70B409174
:10031000F2025091F3026091F4027091F502841799
:100320009507A607B70780F28FEF9FEF089508950E
:10033000CF92DF92EF92FF920F931F93CF93DF93B1
:100340006C017A018B01C0E0D0E0CE15DF0589F0A9
:10035000D8016D918D01D601ED91FC910190F08154
:10036000E02DC6011995892B11F47E0102C021965A
:10037000ECCFC701DF91CF911F910F91FF90EF90CC
:10038000DF90CF900895FC01A089B1898C91A68956
:10039000B78982FD0FC09C91818D8F5F8F73228DF5
:1003A000821749F0218DDF01A20FB11D5D969C934C
:1003B000818F08958C910895FC01538D448D252FD4
:1003C00030E0842F90E0821B930B541710F0CF96EF
:1003D000089501970895FC01918D828D981761F021
:1003E000828DDF01A80FB11D5D968C91928D9F5F6C
:1003F0009F73928F90E008958FEF9FEF0895FC0117
:10040000918D828D981731F0828DE80FF11D858DC9
:1004100090E008958FEF9FEF0895FC01918D228D5C
:10042000892F90E0805C9F4F821B91098F739927E1
:10043000089581E592E0F1DF21E0892B09F420E0C5
:10044000822F08958EEE92E0E8DF21E0892B09F4F7
:1004500020E0822F0895FC01848DDF01A80FB11DDB
:10046000A35ABF4F2C91848D90E001968F739927EA
:10047000848FA689B7892C93A089B1898C918064D7
:100480008C93938D848D981306C00288F389E02D98
:1004900080818F7D80830895EF92FF920F931F9349
:1004A000CF93DF93EC0181E0888F9B8D8C8D981327
:1004B00005C0E889F989808185FD23C0F62E0B8D62
:1004C00010E00F5F1F4F0F731127E02E8C8DE81285
:1004D0000BC00FB607FCFACFE889F989808185FF48
:1004E000F5CFCE01B8DFF2CF8B8DFE01E80FF11D05
:1004F000E35AFF4FF0820B8FEA89FB89808180628B
:1005000007C0EE89FF896083E889F989808180646A
:10051000808381E090E0DF91CF911F910F91FF9058
:10052000EF900895CF93DF93EC01888D8823C1F07D
:10053000EA89FB89808185FD05C0A889B9898C91EC
:1005400086FD0EC00FB607FCF5CF808185FFF2CF88
:10055000A889B9898C9185FFEDCFCE017CDFE8CFEA
:10056000DF91CF91089580E090E0892B19F06ADF48
:10057000811120C080E090E0892B19F05ADF8111B1
:100580001CC080E090E0892B41F080E090E0892B56
:1005900021F00E940000811113C080E090E0892BBF
:1005A000A1F080E090E0892B81F00E940000811191
:1005B0000AC008950E940000DDCF0E940000E1CF34
:1005C0000E940000EACF0C9400000895362F90E0BE
:1005D000FC01E853FE4F4491FC01EE57FE4F24917D
:1005E000FC01E45CFE4F9491992309F46AC0442312
:1005F00009F454C050E0FA013197E231F10508F0F6
:100600004DC08827EE58FF4F8F4F70C680918000F5
:100610008F7707C0809180008F7D03C0809180001C
:10062000877F809380003AC084B58F7702C084B5FD
:100630008F7D84BD33C08091B0008F7703C08091DF
:10064000B0008F7D8093B00029C0809190008F779B
:1006500007C0809190008F7D03C080919000877FBC
:10066000809390001BC08091A0008F7707C080917D
:10067000A0008F7D03C08091A000877F8093A000A1
:100680000DC0809120018F7707C0809120018F7D60
:1006900003C080912001877F80932001E92FF0E043
:1006A000EE0FFF1FEE5DFE4FA591B4918FB7F8944A
:1006B000EC91311103C020952E2301C02E2B2C93D9
:1006C0008FBF0895CF93DF9390E0FC01EE57FE4F6C
:1006D0002491FC01E45CFE4F8491882361F190E059
:1006E000880F991FFC01E85FFE4FC591D491FC0172
:1006F000EE5DFE4FA591B491611109C09FB7F894CA
:100700008881209582238883EC912E230BC0623050
:1007100061F49FB7F8943881822F80958323888372
:10072000EC912E2B2C939FBF06C08FB7F894E881D5
:100730002E2B28838FBFDF91CF9108953FB7F89478
:100740008091490290914A02A0914B02B0914C02D3
:1007500026B5A89B05C02F3F19F00196A11DB11D1C
:100760003FBFBA2FA92F982F8827820F911DA11D57
:10077000B11DBC01CD0142E0660F771F881F991F94
:100780004A95D1F708958F929F92AF92BF92CF92E0
:10079000DF92EF92FF92D2DF4B015C0184EFC82E13
:1007A000DD24D394E12CF12CC9DFDC01CB018819C5
:1007B0009909AA09BB09883E9340A105B10558F0E3
:1007C00021E0C21AD108E108F10888EE880E83E022
:1007D000981EA11CB11CC114D104E104F10421F73D
:1007E000FF90EF90DF90CF90BF90AF909F908F9051
:1007F0000895089580E090E00895009761F0FC016D
:1008000001900020E9F73197AF01481B590BBC015B
:1008100081E592E08DCD80E090E0089580D7FC01E5
:1008200024813581232B31F421E06115710599F084
:10083000FB0108C0FC01808191816115710531F4D3
:1008400021E0FC018081882331F004C075D721E0CC
:10085000892B09F020E0822F08950F931F93CF93E7
:10086000DF93EC0188819981009729F02A813B81EF
:100870002617370780F48B016F5F7F4F6CD6009788
:1008800061F0998388831B830A832C813D81232B0C
:1008900011F4FC01108281E001C080E0DF91CF9172
:1008A0001F910F910895EF92FF920F931F93CF9393
:1008B000DF93EC01198218821B821A821D821C822E
:1008C0006115710531F18B01FB0101900020E9F701
:1008D00031977F01E61AF70AB701BFDF2881398116
:1008E00081110CC02115310511F0C9019CD5198267
:1008F00018821D821C821B821A820BC0FD82EC8230
:10090000B801C901DF91CF911F910F91FF90EF9036
:100910001CC7DF91CF911F910F91FF90EF90089529
:100920001F920F920FB60F9211240BB60F922F93B6
:100930003F934F935F936F937F938F939F93AF9367
:10094000BF93EF93FF9381E592E085DDFF91EF91F7
:10095000BF91AF919F918F917F916F915F914F91D7
:100960003F912F910F900BBE0F900FBE0F901F90D5
:1009700018951F920F920FB60F9211240BB60F927B
:100980002F933F934F935F936F937F938F939F9397
:10099000AF93BF93EF93FF9381E592E0F4DCFF9177
:1009A000EF91BF91AF919F918F917F916F915F91E7
:1009B0004F913F912F910F900BBE0F900FBE0F9054
:1009C0001F9018951F920F920FB60F9211240BB61D
:1009D0000F922F933F934F935F936F937F938F93D8
:1009E0009F93AF93BF93EF93FF938EEE92E033DD2F
:1009F000FF91EF91BF91AF919F918F917F916F91F7
:100A00005F914F913F912F910F900BBE0F900FBEB2
:100A10000F901F9018951F920F920FB60F921124EE
:100A20000BB60F922F933F934F935F936F937F93E8
:100A30008F939F93AF93BF93EF93FF938EEE92E0CC
:100A4000A2DCFF91EF91BF91AF919F918F917F9128
:100A50006F915F914F913F912F910F900BBE0F902F
:100A60000FBE0F901F9018951F920F920FB60F9206
:100A700011242F933F938F939F93AF93BF938091B4
:100A80004D0290914E02A0914F02B09150023091D0
:100A9000480223E0230F2D3720F40196A11DB11D3C
:100AA00005C026E8230F0296A11DB11D2093480220
:100AB00080934D0290934E02A0934F02B093500248
:100AC0008091490290914A02A0914B02B0914C0250
:100AD0000196A11DB11D8093490290934A02A093F3
:100AE0004B02B0934C02BF91AF919F918F913F9178
:100AF0002F910F900FBE0F901F9018951F920F927D
:100B00000FB60F9211240F900FBE0F901F901895E3
:100B1000E1E5F2E01382128248EE53E060E070E01B
:100B200044835583668377838AE092E09183808350
:100B30002DEC30E0358724872CEC30E03787268792
:100B400028EC30E0318B208B29EC30E0338B228B8A
:100B50002AEC30E0358B248B2EEC30E0378B268B63
:100B6000118E128E138E148EEEEEF2E0138212822C
:100B700044835583668377839183808385EC90E0FB
:100B80009587848784EC90E09787868780EC90E057
:100B9000918B808B81EC90E0938B828B82EC90E048
:100BA000958B848B86EC90E0978B868B118E128EC2
:100BB000138E148E0895CF93DF93CDB7DEB72E97A3
:100BC0000FB6F894DEBF0FBECDBF789484B58260B7
:100BD00084BD84B5816084BD85B5826085BD85B5E1
:100BE000816085BD80916E00816080936E0010925F
:100BF00081008091810082608093810080918100DA
:100C0000816080938100809180008160809380006A
:100C10008091B10084608093B1008091B0008160C8
:100C20008093B000809191008260809391008091C8
:100C30009100816080939100809190008160809309
:100C400090008091A10082608093A1008091A1001A
:100C500081608093A1008091A00081608093A000BA
:100C60008091210182608093210180912101816026
:100C700080932101809120018160809320018091E7
:100C80007A00846080937A0080917A0082608093F9
:100C90007A0080917A00816080937A0080917A0056
:100CA000806880937A001092C10060E085E00ADDE0
:100CB00061E080E007DD61E081E004DD61E082E089
:100CC00001DD61E083E0FEDC61E084E0FBDC61E00B
:100CD00085E0F8DC61E086E0F5DC61E087E0F2DCED
:100CE00061E088E0EFDC61E089E0ECDC61E08AE073
:100CF000E9DC61E08BE0E6DC61E08CE0E3DC61E014
:100D00008DE0E0DC61E08EE0DDDC61E08FE0DADCEC
:100D100061E080E1D7DC61E081E1D4DC61E082E187
:100D2000D1DC61E083E1CEDC61E084E1CBDC61E039
:100D300085E1C8DCE091FE02F091FF0222E0208311
:100D4000E091FA02F091FB021082E091FC02F09136
:100D5000FD028FEC808310920603E0910203F09174
:100D6000030396E09083E0910003F09101038081FA
:100D700080618083E0910003F091010380818860AD
:100D80008083E0910003F09101038081806880837B
:100D9000E0910003F091010380818F7D8083E091D9
:100DA0006102F09162022083E0915D02F0915E02A7
:100DB00087E08083E0915F02F091600288EA80839F
:100DC00010926902E0916502F09166029083E091D1
:100DD0006302F0916402808180618083E09163020C
:100DE000F0916402808188608083E0916302F091D9
:100DF0006402808180688083E0916302F0916402E4
:100E000080818F7D808363E272E0CE0107964BDDA7
:100E10008EEE92E002DB181619060CF062C263E255
:100E200072E0CE0101963FDD3CDA97FD1CC08A30AE
:100E30009105C9F08D871E860D811E810F5F1F4FA2
:100E4000B801CE01019609DD882371F329813A8129
:100E50008D819E81BE01635F7F4F820F931F75D48A
:100E60001E830D83E1CF8F819885009799F069816A
:100E70007A816115710569F049855A852D813E8118
:100E80004217530730F061D48D819E819C878B87F8
:100E900011C0C9D289819A8198878F838B819C8167
:100EA0009A8789878D819E819C878B871A82198278
:100EB0001C821B821E821D8289819A81B4D262E2C9
:100EC00072E0CE010796ABDC882389F061E080E018
:100ED0007DDBCFD9893E93401CF088E192E002C0CF
:100EE0008DE192E08ADC4FDC60E080E0F9C165E2F0
:100EF00072E0CE01079693DC882389F061E081E0FF
:100F000065DBB7D9893E93401CF088E192E002C0CE
:100F10008DE192E072DC37DC60E081E0E1C168E203
:100F200072E0CE0107967BDC882389F061E082E0E5
:100F30004DDB9FD9893E93401CF088E192E002C0CE
:100F40008DE192E05ADC1FDC60E082E0C9C16BE217
:100F500072E0CE01079663DC882389F061E083E0CC
:100F600035DB87D9893E93401CF088E192E002C0CE
:100F70008DE192E042DC07DC60E083E0B1C16EE22B
:100F800072E0CE0107964BDC882389F061E084E0B3
:100F90001DDB6FD9893E93401CF088E192E002C0CE
:100FA0008DE192E02ADCEFDB60E084E099C161E34F
:100FB00072E0CE01079633DC882389F061E085E09A
:100FC00005DB57D9893E93401CF088E192E002C0CE
:100FD0008DE192E012DCD7DB60E085E081C164E363
:100FE00072E0CE0107961BDC882389F061E086E081
:100FF000EDDA3FD9893E93401CF088E192E002C0CF
:101000008DE192E0FADBBFDB60E086E069C167E377
:1010100072E0CE01079603DC882389F061E087E067
:10102000D5DA27D9893E93401CF088E192E002C0CE
:101030008DE192E0E2DBA7DB60E087E051C16AE38B
:1010400072E0CE010796EBDB882389F061E088E04F
:10105000BDDA0FD9893E93401CF088E192E002C0CE
:101060008DE192E0CADB8FDB60E088E039C16DE39F
:1010700072E0CE010796D3DB882389F061E089E036
:10108000A5DAF7D8893E93401CF088E192E002C0CF
:101090008DE192E0B2DB77DB60E089E021C161E2C3
:1010A00072E0CE010796BBDB882389F061E08AE01D
:1010B0008DDADFD8893E93401CF088E192E002C0CF
:1010C0008DE192E09ADB5FDB60E08AE009C164E2D7
:1010D00072E0CE010796A3DB882389F061E08BE004
:1010E00075DAC7D8893E93401CF088E192E002C0CF
:1010F0008DE192E082DB47DB60E08BE0F1C067E2EC
:1011000072E0CE0107968BDB882389F061E08CE0EA
:101110005DDAAFD8893E93401CF088E192E002C0CE
:101120008DE192E06ADB2FDB60E08CE0D9C06AE2FF
:1011300072E0CE01079673DB882389F061E08DE0D1
:1011400045DA97D8893E93401CF088E192E002C0CE
:101150008DE192E052DB17DB60E08DE0C1C06DE213
:1011600072E0CE0107965BDB882389F061E08EE0B8
:101170002DDA7FD8893E93401CF088E192E002C0CE
:101180008DE192E03ADBFFDA60E08EE0A9C060E337
:1011900072E0CE01079643DB882389F061E08FE09F
:1011A00015DA67D8893E93401CF088E192E002C0CE
:1011B0008DE192E022DBE7DA60E08FE091C063E34B
:1011C00072E0CE0107962BDB882389F061E080E195
:1011D000FDD94FD8893E93401CF088E192E002C0CF
:1011E0008DE192E00ADBCFDA60E080E179C066E36E
:1011F00072E0CE01079613DB882389F061E081E17C
:10120000E5D937D8893E93401CF088E192E002C0CE
:101210008DE192E0F2DAB7DA60E081E161C069E382
:1012200072E0CE010796FBDA882389F061E082E163
:10123000CDD91FD8893E93401CF088E192E002C0CE
:101240008DE192E0DADA9FDA60E082E149C06CE396
:1012500072E0CE010796E3DA882389F061E083E14A
:10126000B5D907D8893E93401CF088E192E002C0CE
:101270008DE192E0C2DA87DA60E083E131C06FE3AA
:1012800072E0CE010796CBDA882391F061E084E129
:101290009DD90E943901893E93401CF088E192E07B
:1012A00002C08DE192E0A9DA6EDA60E084E118C054
:1012B00062E472E0CE010796B2DA882391F061E031
:1012C00085E184D90E943901893E93401CF088E170
:1012D00092E002C08DE192E090DA55DA60E085E1BB
:1012E00075D98F8198859FD03ED98DCDEE0FFF1F88
:1012F000881F8BBF0790F691E02D1994CF93DF9351
:101300008230910510F482E090E0E0918D03F0913D
:101310008E0320E030E0C0E0D0E0309711F1408152
:10132000518148175907C0F04817590761F4828165
:101330009381209719F09B838A832BC090938E030F
:1013400080938D0326C02115310519F042175307EC
:1013500018F49A01BE01DF01EF010280F381E02D54
:10136000DCCF2115310509F1281B390B243031055B
:1013700090F412968D919C9113976115710521F04F
:10138000FB019383828304C090938E0380938D032B
:10139000FD01329644C0FD01E20FF31F819391934A
:1013A000225031092D933C933AC020918B03309108
:1013B0008C03232B41F420910202309103023093DD
:1013C0008C0320938B0320910002309101022115A0
:1013D000310541F42DB73EB740910402509105020A
:1013E000241B350BE0918B03F0918C03E217F3077C
:1013F000A0F42E1B3F0B2817390778F0AC014E5F85
:101400005F4F2417350748F04E0F5F1F50938C0332
:1014100040938B038193919302C0E0E0F0E0CF0111
:10142000DF91CF9108950F931F93CF93DF93009790
:1014300009F48CC0FC0132971382128200918D0353
:1014400010918E030115110581F420813181820FE5
:10145000931F20918B0330918C032817390779F55E
:10146000F0938C03E0938B0371C0D80140E050E00F
:10147000AE17BF0750F412962D913C911397AD0112
:101480002115310509F1D901F3CF9D01DA0133832B
:10149000228360817181860F971F8217930769F4F9
:1014A000EC0128813981260F371F2E5F3F4F318392
:1014B00020838A819B8193838283452B29F4F09337
:1014C0008E03E0938D0342C01396FC93EE93129724
:1014D000ED01499159919E01240F351FE217F30741
:1014E00071F480819181840F951F029611969C93CF
:1014F0008E938281938113969C938E931297E0E052
:10150000F0E0D80112968D919C911397009719F0F5
:10151000F8018C01F6CF8D919C9198012E5F3F4F81
:10152000820F931F20918B0330918C03281739076A
:1015300069F4309729F410928E0310928D0302C043
:101540001382128210938C0300938B03DF91CF914F
:101550001F910F9108956F927F928F929F92AF92F9
:10156000BF92CF92DF92EF92FF920F931F93CF9390
:10157000DF93EC01009781F4CB01DF91CF911F91B4
:101580000F91FF90EF90DF90CF90BF90AF909F9022
:101590008F907F906F90B2CEFC01E60FF71F9C01F9
:1015A00022503109E217F30708F4A8C0D9010D91C0
:1015B0001C91119706171707A8F00530110508F4BC
:1015C0009BC0C80104978617970708F495C002507E
:1015D0001109061B170B019311936D937C93CF0197
:1015E00022DF8AC05B01A01AB10A4C01800E911E55
:1015F000A0918D03B0918E0340E050E0E12CF12CDE
:10160000109709F44AC0A815B905D1F56D907C90E2
:101610001197630182E0C80ED11CCA14DB0480F16B
:10162000A3014A195B096A0182E0C80ED11C129617
:10163000BC9012971396AC91B5E0CB16D10440F054
:10164000B282A38351834083D9016D937C930AC0F6
:101650000E5F1F4FC301800F911FF901918380839B
:10166000EB2DFA2FE114F10431F0D7011396FC931E
:10167000EE93129741C0F0938E03E0938D033CC02C
:101680008D919C9111974817590708F4AC017D0181
:1016900012960D90BC91A02DB3CF80918B039091A9
:1016A0008C0388159905E1F446175707C8F4809113
:1016B000000290910102009741F48DB79EB74091CE
:1016C000040250910502841B950BE817F907B0F44A
:1016D000F0938C03E0938B03F901718360830CC05A
:1016E000CB010CDE7C01009749F0A801BE011BD0A4
:1016F000CE0199DEC70104C0CE0102C080E090E0B7
:10170000DF91CF911F910F91FF90EF90DF90CF90DD
:10171000BF90AF909F908F907F906F90089581E0E1
:1017200090E0F89419C0FB01DC0102C001900D9219
:1017300041505040D8F70895FB01DC018D91019094
:1017400080190110D9F3990B0895FB01DC01019078
:0C1750000D920020E1F70895F894FFCFFF
:10175C0000008F038000000000004C029801DC01A7
:10176C0092020D02EB01FF01474F4F4400424144EE
:10177C00003130003131003132003133003134006E
:10178C003135003136003137003138003139003213
:06179C00300032310000B4
:00000001FF
